{
  "contractName": "SimpleToken",
  "abi": [
    {
      "inputs": [
        {
          "internalType": "uint256",
          "name": "_initialSupply",
          "type": "uint256"
        }
      ],
      "stateMutability": "nonpayable",
      "type": "constructor"
    },
    {
      "inputs": [
        {
          "internalType": "address",
          "name": "",
          "type": "address"
        }
      ],
      "name": "balanceOf",
      "outputs": [
        {
          "internalType": "uint256",
          "name": "",
          "type": "uint256"
        }
      ],
      "stateMutability": "view",
      "type": "function"
    },
    {
      "inputs": [],
      "name": "decimals",
      "outputs": [
        {
          "internalType": "uint8",
          "name": "",
          "type": "uint8"
        }
      ],
      "stateMutability": "view",
      "type": "function"
    },
    {
      "inputs": [],
      "name": "name",
      "outputs": [
        {
          "internalType": "string",
          "name": "",
          "type": "string"
        }
      ],
      "stateMutability": "view",
      "type": "function"
    },
    {
      "inputs": [],
      "name": "symbol",
      "outputs": [
        {
          "internalType": "string",
          "name": "",
          "type": "string"
        }
      ],
      "stateMutability": "view",
      "type": "function"
    },
    {
      "inputs": [],
      "name": "totalSupply",
      "outputs": [
        {
          "internalType": "uint256",
          "name": "",
          "type": "uint256"
        }
      ],
      "stateMutability": "view",
      "type": "function"
    },
    {
      "inputs": [
        {
          "internalType": "address",
          "name": "_to",
          "type": "address"
        },
        {
          "internalType": "uint256",
          "name": "_value",
          "type": "uint256"
        }
      ],
      "name": "transfer",
      "outputs": [
        {
          "internalType": "bool",
          "name": "success",
          "type": "bool"
        }
      ],
      "stateMutability": "nonpayable",
      "type": "function"
    },
    {
      "inputs": [
        {
          "internalType": "address",
          "name": "_owner",
          "type": "address"
        }
      ],
      "name": "balance",
      "outputs": [
        {
          "internalType": "uint256",
          "name": "",
          "type": "uint256"
        }
      ],
      "stateMutability": "view",
      "type": "function"
    }
  ],
  "bytecode": "0x60806040526040518060400160405280600b81526020017f53696d706c65546f6b656e000000000000000000000000000000000000000000815250600090805190602001906200005192919062000141565b506040518060400160405280600381526020017f53494d0000000000000000000000000000000000000000000000000000000000815250600190805190602001906200009f92919062000141565b506012600260006101000a81548160ff021916908360ff160217905550348015620000c957600080fd5b5060405162000b2238038062000b228339818101604052810190620000ef919062000208565b8060038190555080600460003373ffffffffffffffffffffffffffffffffffffffff1673ffffffffffffffffffffffffffffffffffffffff1681526020019081526020016000208190555050620002bd565b8280546200014f906200023e565b90600052602060002090601f016020900481019282620001735760008555620001bf565b82601f106200018e57805160ff1916838001178555620001bf565b82800160010185558215620001bf579182015b82811115620001be578251825591602001919060010190620001a1565b5b509050620001ce9190620001d2565b5090565b5b80821115620001ed576000816000905550600101620001d3565b5090565b6000815190506200020281620002a3565b92915050565b6000602082840312156200021b57600080fd5b60006200022b84828501620001f1565b91505092915050565b6000819050919050565b600060028204905060018216806200025757607f821691505b602082108114156200026e576200026d62000274565b5b50919050565b7f4e487b7100000000000000000000000000000000000000000000000000000000600052602260045260246000fd5b620002ae8162000234565b8114620002ba57600080fd5b50565b61085580620002cd6000396000f3fe608060405234801561001057600080fd5b506004361061007d5760003560e01c806370a082311161005b57806370a08231146100dc57806395d89b411461010c578063a9059cbb1461012a578063e3d670d71461015a5761007d565b806306fdde031461008257806318160ddd146100a0578063313ce567146100be575b600080fd5b61008a61018a565b60405161009791906105aa565b60405180910390f35b6100a8610218565b6040516100b591906105ec565b60405180910390f35b6100c661021e565b6040516100d39190610607565b60405180910390f35b6100f660048036038101906100f19190610484565b610231565b60405161010391906105ec565b60405180910390f35b610114610249565b60405161012191906105aa565b60405180910390f35b610144600480360381019061013f91906104ad565b6102d7565b604051610151919061058f565b60405180910390f35b610174600480360381019061016f9190610484565b610411565b60405161018191906105ec565b60405180910390f35b6000805461019790610750565b80601f01602080910402602001604051908101604052809291908181526020018280546101c390610750565b80156102105780601f106101e557610100808354040283529160200191610210565b820191906000526020600020905b8154815290600101906020018083116101f357829003601f168201915b505050505081565b60035481565b600260009054906101000a900460ff1681565b60046020528060005260406000206000915090505481565b6001805461025690610750565b80601f016020809104026020016040519081016040528092919081815260200182805461028290610750565b80156102cf5780601f106102a4576101008083540402835291602001916102cf565b820191906000526020600020905b8154815290600101906020018083116102b257829003601f168201915b505050505081565b600081600460003373ffffffffffffffffffffffffffffffffffffffff1673ffffffffffffffffffffffffffffffffffffffff16815260200190815260200160002054101561035b576040517f08c379a0000000000000000000000000000000000000000000000000000000008152600401610352906105cc565b60405180910390fd5b81600460003373ffffffffffffffffffffffffffffffffffffffff1673ffffffffffffffffffffffffffffffffffffffff16815260200190815260200160002060008282546103aa9190610694565b9250508190555081600460008573ffffffffffffffffffffffffffffffffffffffff1673ffffffffffffffffffffffffffffffffffffffff1681526020019081526020016000206000828254610400919061063e565b925050819055506001905092915050565b6000600460008373ffffffffffffffffffffffffffffffffffffffff1673ffffffffffffffffffffffffffffffffffffffff168152602001908152602001600020549050919050565b600081359050610469816107f1565b92915050565b60008135905061047e81610808565b92915050565b60006020828403121561049657600080fd5b60006104a48482850161045a565b91505092915050565b600080604083850312156104c057600080fd5b60006104ce8582860161045a565b92505060206104df8582860161046f565b9150509250929050565b6104f2816106da565b82525050565b600061050382610622565b61050d818561062d565b935061051d81856020860161071d565b610526816107e0565b840191505092915050565b600061053e60148361062d565b91507f496e73756666696369656e742062616c616e63650000000000000000000000006000830152602082019050919050565b61057a81610706565b82525050565b61058981610710565b82525050565b60006020820190506105a460008301846104e9565b92915050565b600060208201905081810360008301526105c481846104f8565b905092915050565b600060208201905081810360008301526105e581610531565b9050919050565b60006020820190506106016000830184610571565b92915050565b600060208201905061061c6000830184610580565b92915050565b600081519050919050565b600082825260208201905092915050565b600061064982610706565b915061065483610706565b9250827fffffffffffffffffffffffffffffffffffffffffffffffffffffffffffffffff0382111561068957610688610782565b5b828201905092915050565b600061069f82610706565b91506106aa83610706565b9250828210156106bd576106bc610782565b5b828203905092915050565b60006106d3826106e6565b9050919050565b60008115159050919050565b600073ffffffffffffffffffffffffffffffffffffffff82169050919050565b6000819050919050565b600060ff82169050919050565b60005b8381101561073b578082015181840152602081019050610720565b8381111561074a576000848401525b50505050565b6000600282049050600182168061076857607f821691505b6020821081141561077c5761077b6107b1565b5b50919050565b7f4e487b7100000000000000000000000000000000000000000000000000000000600052601160045260246000fd5b7f4e487b7100000000000000000000000000000000000000000000000000000000600052602260045260246000fd5b6000601f19601f8301169050919050565b6107fa816106c8565b811461080557600080fd5b50565b61081181610706565b811461081c57600080fd5b5056fea2646970667358221220283eeb3475e76097d065c077490c04d5feaeb74848093178914377168306a99264736f6c63430008000033",
  "immutableReferences": {},
  "source": "// SPDX-License-Identifier: MIT\r\npragma solidity ^0.8.0;\r\n\r\n// Basic Storage Contract\r\ncontract SimpleStorage {\r\n    uint public storedData;\r\n\r\n    constructor(uint initialValue) {\r\n        storedData = initialValue;\r\n    }\r\n\r\n    function set(uint value) public {\r\n        storedData = value;\r\n    }\r\n\r\n    function get() public view returns (uint) {\r\n        return storedData;\r\n    }\r\n}\r\n\r\n// Simple Token Contract\r\ncontract SimpleToken {\r\n    string public name = \"SimpleToken\";\r\n    string public symbol = \"SIM\";\r\n    uint8 public decimals = 18;\r\n    uint256 public totalSupply;\r\n\r\n    mapping(address => uint256) public balanceOf;\r\n\r\n    constructor(uint256 _initialSupply) {\r\n        totalSupply = _initialSupply;\r\n        balanceOf[msg.sender] = _initialSupply; // Assign the entire supply to the creator\r\n    }\r\n\r\n    function transfer(address _to, uint256 _value) public returns (bool success) {\r\n        require(balanceOf[msg.sender] >= _value, \"Insufficient balance\");\r\n        balanceOf[msg.sender] -= _value;\r\n        balanceOf[_to] += _value;\r\n        return true;\r\n    }\r\n\r\n    function balance(address _owner) public view returns (uint256) {\r\n        return balanceOf[_owner];\r\n    }\r\n}\r\n\r\n// Simple Voting Contract\r\ncontract Voting {\r\n    mapping (address => uint) public votesReceived;\r\n    address public owner;\r\n\r\n    constructor() {\r\n        owner = msg.sender;\r\n    }\r\n\r\n    function vote(address candidate) public {\r\n        require(msg.sender != owner, \"Owner cannot vote\");\r\n        votesReceived[candidate] += 1;\r\n    }\r\n\r\n    function getVotes(address candidate) public view returns (uint) {\r\n        return votesReceived[candidate];\r\n    }\r\n\r\n    function resetVotes(address candidate) public {\r\n        require(msg.sender == owner, \"Only the owner can reset votes\");\r\n        votesReceived[candidate] = 0;\r\n    }\r\n}",
  "sourcePath": "C:\\Users\\vc\\Desktop\\blockchain\\contracts\\vendingMchine.sol",
  "compiler": {
    "name": "solc",
    "version": "0.8.0+commit.c7dfd78e.Emscripten.clang"
  },
  "schemaVersion": "3.4.16",
  "updatedAt": "2024-10-05T14:48:30.793Z",
  "devdoc": {
    "kind": "dev",
    "methods": {},
    "version": 1
  },
  "userdoc": {
    "kind": "user",
    "methods": {},
    "version": 1
  }
}