{
  "contractName": "Voting",
  "abi": [
    {
      "inputs": [],
      "stateMutability": "nonpayable",
      "type": "constructor"
    },
    {
      "inputs": [],
      "name": "owner",
      "outputs": [
        {
          "internalType": "address",
          "name": "",
          "type": "address"
        }
      ],
      "stateMutability": "view",
      "type": "function"
    },
    {
      "inputs": [
        {
          "internalType": "address",
          "name": "",
          "type": "address"
        }
      ],
      "name": "votesReceived",
      "outputs": [
        {
          "internalType": "uint256",
          "name": "",
          "type": "uint256"
        }
      ],
      "stateMutability": "view",
      "type": "function"
    },
    {
      "inputs": [
        {
          "internalType": "address",
          "name": "candidate",
          "type": "address"
        }
      ],
      "name": "vote",
      "outputs": [],
      "stateMutability": "nonpayable",
      "type": "function"
    },
    {
      "inputs": [
        {
          "internalType": "address",
          "name": "candidate",
          "type": "address"
        }
      ],
      "name": "getVotes",
      "outputs": [
        {
          "internalType": "uint256",
          "name": "",
          "type": "uint256"
        }
      ],
      "stateMutability": "view",
      "type": "function"
    },
    {
      "inputs": [
        {
          "internalType": "address",
          "name": "candidate",
          "type": "address"
        }
      ],
      "name": "resetVotes",
      "outputs": [],
      "stateMutability": "nonpayable",
      "type": "function"
    }
  ],
  "bytecode": "0x608060405234801561001057600080fd5b5033600160006101000a81548173ffffffffffffffffffffffffffffffffffffffff021916908373ffffffffffffffffffffffffffffffffffffffff1602179055506105ca806100616000396000f3fe608060405234801561001057600080fd5b50600436106100575760003560e01c8063122d0b9c1461005c57806330c880c3146100785780636dd7d8ea146100a85780638da5cb5b146100c45780639ab24eb0146100e2575b600080fd5b6100766004803603810190610071919061036e565b610112565b005b610092600480360381019061008d919061036e565b6101e9565b60405161009f9190610490565b60405180910390f35b6100c260048036038101906100bd919061036e565b610201565b005b6100cc6102eb565b6040516100d99190610435565b60405180910390f35b6100fc60048036038101906100f7919061036e565b610311565b6040516101099190610490565b60405180910390f35b600160009054906101000a900473ffffffffffffffffffffffffffffffffffffffff1673ffffffffffffffffffffffffffffffffffffffff163373ffffffffffffffffffffffffffffffffffffffff16146101a2576040517f08c379a000000000000000000000000000000000000000000000000000000000815260040161019990610450565b60405180910390fd5b60008060008373ffffffffffffffffffffffffffffffffffffffff1673ffffffffffffffffffffffffffffffffffffffff1681526020019081526020016000208190555050565b60006020528060005260406000206000915090505481565b600160009054906101000a900473ffffffffffffffffffffffffffffffffffffffff1673ffffffffffffffffffffffffffffffffffffffff163373ffffffffffffffffffffffffffffffffffffffff161415610292576040517f08c379a000000000000000000000000000000000000000000000000000000000815260040161028990610470565b60405180910390fd5b60016000808373ffffffffffffffffffffffffffffffffffffffff1673ffffffffffffffffffffffffffffffffffffffff16815260200190815260200160002060008282546102e191906104bc565b9250508190555050565b600160009054906101000a900473ffffffffffffffffffffffffffffffffffffffff1681565b60008060008373ffffffffffffffffffffffffffffffffffffffff1673ffffffffffffffffffffffffffffffffffffffff168152602001908152602001600020549050919050565b6000813590506103688161057d565b92915050565b60006020828403121561038057600080fd5b600061038e84828501610359565b91505092915050565b6103a081610512565b82525050565b60006103b3601e836104ab565b91507f4f6e6c7920746865206f776e65722063616e20726573657420766f74657300006000830152602082019050919050565b60006103f36011836104ab565b91507f4f776e65722063616e6e6f7420766f74650000000000000000000000000000006000830152602082019050919050565b61042f81610544565b82525050565b600060208201905061044a6000830184610397565b92915050565b60006020820190508181036000830152610469816103a6565b9050919050565b60006020820190508181036000830152610489816103e6565b9050919050565b60006020820190506104a56000830184610426565b92915050565b600082825260208201905092915050565b60006104c782610544565b91506104d283610544565b9250827fffffffffffffffffffffffffffffffffffffffffffffffffffffffffffffffff038211156105075761050661054e565b5b828201905092915050565b600061051d82610524565b9050919050565b600073ffffffffffffffffffffffffffffffffffffffff82169050919050565b6000819050919050565b7f4e487b7100000000000000000000000000000000000000000000000000000000600052601160045260246000fd5b61058681610512565b811461059157600080fd5b5056fea2646970667358221220cdcc106b20ace1bf3a8120c801de4d2a71ba271e00ead10e56721a63b8b2450464736f6c63430008000033",
  "immutableReferences": {},
  "source": "// SPDX-License-Identifier: MIT\r\npragma solidity ^0.8.0;\r\n\r\n// Basic Storage Contract\r\ncontract SimpleStorage {\r\n    uint public storedData;\r\n\r\n    constructor(uint initialValue) {\r\n        storedData = initialValue;\r\n    }\r\n\r\n    function set(uint value) public {\r\n        storedData = value;\r\n    }\r\n\r\n    function get() public view returns (uint) {\r\n        return storedData;\r\n    }\r\n}\r\n\r\n// Simple Token Contract\r\ncontract SimpleToken {\r\n    string public name = \"SimpleToken\";\r\n    string public symbol = \"SIM\";\r\n    uint8 public decimals = 18;\r\n    uint256 public totalSupply;\r\n\r\n    mapping(address => uint256) public balanceOf;\r\n\r\n    constructor(uint256 _initialSupply) {\r\n        totalSupply = _initialSupply;\r\n        balanceOf[msg.sender] = _initialSupply; // Assign the entire supply to the creator\r\n    }\r\n\r\n    function transfer(address _to, uint256 _value) public returns (bool success) {\r\n        require(balanceOf[msg.sender] >= _value, \"Insufficient balance\");\r\n        balanceOf[msg.sender] -= _value;\r\n        balanceOf[_to] += _value;\r\n        return true;\r\n    }\r\n\r\n    function balance(address _owner) public view returns (uint256) {\r\n        return balanceOf[_owner];\r\n    }\r\n}\r\n\r\n// Simple Voting Contract\r\ncontract Voting {\r\n    mapping (address => uint) public votesReceived;\r\n    address public owner;\r\n\r\n    constructor() {\r\n        owner = msg.sender;\r\n    }\r\n\r\n    function vote(address candidate) public {\r\n        require(msg.sender != owner, \"Owner cannot vote\");\r\n        votesReceived[candidate] += 1;\r\n    }\r\n\r\n    function getVotes(address candidate) public view returns (uint) {\r\n        return votesReceived[candidate];\r\n    }\r\n\r\n    function resetVotes(address candidate) public {\r\n        require(msg.sender == owner, \"Only the owner can reset votes\");\r\n        votesReceived[candidate] = 0;\r\n    }\r\n}",
  "sourcePath": "C:\\Users\\vc\\Desktop\\blockchain\\contracts\\vendingMchine.sol",
  "compiler": {
    "name": "solc",
    "version": "0.8.0+commit.c7dfd78e.Emscripten.clang"
  },
  "schemaVersion": "3.4.16",
  "updatedAt": "2024-10-05T14:48:30.804Z",
  "devdoc": {
    "kind": "dev",
    "methods": {},
    "version": 1
  },
  "userdoc": {
    "kind": "user",
    "methods": {},
    "version": 1
  }
}